:020000040800F2
:10000000700400204D030008B9030008C31700085E
:10001000B9030008B9030008B90300080000000094
:10002000000000000000000000000000B90300080C
:10003000B903000800000000B9030008B903000874
:10004000B9030008B9030008B9030008B9030008A0
:10005000B9030008B9030008B9030008B903000890
:10006000B9030008B9030008B9030008B903000880
:10007000B9030008B9030008B9030008B903000870
:10008000B9030008B9030008B90300080000000024
:10009000000000000000000000000000B90300089C
:1000A000B9030008B9030008B9030008B903000840
:1000B000A50B0008B9030008B9030008B90300083C
:1000C000B9030008B9030008B9030008B903000820
:1000D000B9030008B9030008B9030008B903000810
:1000E000B9030008B9030008B903000800000000C4
:1000F0000000000000000000000000000000000000
:1001000000000000000000000000000000000000EF
:100110000000000000000000B9030008B903000857
:100120005FF808F180B485B000AF786039604FF0B7
:100130000003FB817B681B88FB817A684FF4305396
:10014000C4F201039A421FD07A684FF45053C4F2AC
:1001500001039A4218D07B68B3F1804F14D07A68BB
:100160004FF48063C4F200039A420DD07A684FF4D2
:100170000063C4F200039A4206D07A684FF44063E9
:10018000C4F200039A4208D1FB8923F07003FB817B
:100190003B685A88FB891343FB817A684FF480538C
:1001A000C4F200039A420FD07A684FF4A053C4F20D
:1001B00000039A4208D0FB8923F44073FB813B681B
:1001C000DA88FB891343FB817B68FA891A803B68D4
:1001D0009A887B689A853B681A887B681A857A6852
:1001E0004FF43053C4F201039A421BD07A684FF4A3
:1001F0005053C4F201039A4214D07A684FF48043FA
:10020000C4F201039A420DD07A684FF48843C4F2D5
:1002100001039A4206D07A684FF49043C4F2010376
:100220009A4204D13B681B7A1A467B681A867B681F
:100230004FF001029A8207F11407BD4680BC704757
:1002400080B483B000AF78600B46FB70FB78002B66
:1002500008D07B681B889BB243F001039AB27B688D
:100260001A8007E07B681B889BB223F001039AB2D7
:100270007B681A8007F10C07BD4680BC704700BF41
:1002800080B483B000AF786013460A467A807B70F2
:100290007B78002B08D07B689B899AB27B881343BC
:1002A0009AB27B689A810AE07B689B899AB27B88C4
:1002B0006FEA03039BB213409AB27B689A8107F1FD
:1002C0000C07BD4680BC704780B485B000AF786035
:1002D0000B467B804FF00003FB734FF00003BB81A4
:1002E0004FF000037B817B681B8A9AB27B881340A6
:1002F000BB817B689B899AB27B8813407B81BB89D9
:10030000002B06D07B89002B03D04FF00103FB7339
:1003100002E04FF00003FB73FB7B184607F1140764
:10032000BD4680BC704700BF80B483B000AF78602A
:100330000B467B807B886FEA03039AB27B681A8244
:1003400007F10C07BD4680BC704700BF80B582B086
:1003500000AF41F64013C0F600037B6040F200039B
:10036000C2F200033B600BE07B681A683B681A60CE
:100370003B6803F104033B607B6803F104037B608B
:100380003A6840F23403C2F200039A42ECD30848C0
:1003900008494FF000028842B8BF40F8042BFADB4E
:1003A00000F00EF800F0C6FD07F10807BD4680BD5D
:1003B000340000206C00002080B400AFFEE700BFD6
:1003C00080B500AF4FF48053C4F202034FF4805263
:1003D000C4F20202126842F001021A604FF4805225
:1003E000C4F202024FF48053C4F202035B68194660
:1003F0004FF00003CFF6FF030B4053604FF48053E0
:10040000C4F202034FF48052C4F20202126822F0D6
:10041000847222F480321A604FF48053C4F20203D3
:100420004FF48052C4F20202126822F480221A6051
:100430004FF48053C4F202034FF48052C4F202021C
:10044000526822F4FE025A604FF48053C4F2020351
:100450004FF41F029A604FF48053C4F202034FF02E
:100460000002DA6200F0A6F84FF46D43CEF200030A
:100470004FF000629A6080BD80B485B000AF4FF04D
:100480000003FB604FF00003BB604FF000037B6094
:100490004FF000033B604FF48053C4F202035B68EB
:1004A00003F00C03FB60FB68042B0DD0082B15D068
:1004B000002B53D140F20003C2F200034FF49052DC
:1004C000C0F27A021A6053E040F20003C2F2000365
:1004D0004FF49052C0F27A021A6049E04FF4805310
:1004E000C4F202035B6803F47013BB604FF48053E3
:1004F000C4F202035B6803F480337B60BB684FEA9D
:10050000934303F10203BB607B68002B0CD1BA68F4
:100510004FF41063C0F23D0303FB02F240F200030C
:10052000C2F200031A6023E04FF48053C4F20203C6
:10053000DB6A03F00F0303F101033B604FF49053B8
:10054000C0F27A033A68B3FBF2F3BA6802FB03F233
:1005500040F20003C2F200031A6009E040F2000317
:10056000C2F200034FF49052C0F27A021A6000BF48
:100570004FF48053C4F202035B6803F0F0034FEAC8
:10058000131240F20403C2F200039B5CDBB2FB6077
:1005900040F20003C2F200031A68FB6822FA03F279
:1005A00040F20003C2F200031A6007F11407BD46CF
:1005B00080BC704780B500AF00F002F880BD00BF7E
:1005C00080B483B000AF4FF000037B604FF00003B6
:1005D0003B604FF48053C4F202034FF48052C4F2E4
:1005E0000202126842F480321A604FF48053C4F25F
:1005F00002031B6803F400333B607B6803F10103D3
:100600007B603B68002B03D17B68B3F5A06FECD116
:100610004FF48053C4F202031B6803F40033002B31
:1006200003D04FF001033B6002E04FF000033B605A
:100630003B68012B6DD14FF48053C4F202034FF499
:100640008052C4F2020252685A604FF48053C4F2DE
:1006500002034FF48052C4F2020252685A604FF40F
:100660008053C4F202034FF48052C4F20202526873
:100670005A604FF48053C4F202034FF48052C4F224
:100680000202526822F47C125A604FF48053C4F282
:1006900002034FF48052C4F20202526842F49812EC
:1006A0005A604FF48053C4F202034FF48052C4F2F4
:1006B0000202126842F080721A6000BF4FF4805349
:1006C000C4F202031B6803F00073002BF6D04FF452
:1006D0008053C4F202034FF48052C4F20202526803
:1006E00022F003025A604FF48053C4F202034FF425
:1006F0008052C4F20202526842F002025A6000BF05
:100700004FF48053C4F202035B6803F00C03082B20
:10071000F6D107F10C07BD4680BC704780B489B0A4
:1007200000AF786039604FF00003FB614FF00003C9
:100730003B614FF00003BB614FF00003FB604FF0E3
:1007400000037B614FF00003BB603B68DB7803F084
:100750000F03FB613B68DB7803F01003002B04D030
:100760003B689B78FA691343FB613B681B88DBB2EB
:10077000002B4ED07B681B687B614FF00003BB6190
:1007800041E0BB694FF0010202FA03F3FB603B68F2
:100790001B881A46FB6813403B613A69FB689A4222
:1007A0002DD1BB694FEA8303FB60FB684FF00F025A
:1007B00002FA03F3BB60BB686FEA03037A69134074
:1007C0007B61FB68FA6902FA03F37A6913437B6180
:1007D0003B68DB78282B07D1BB694FF0010202FA96
:1007E00003F27B685A610AE03B68DB78482B06D14C
:1007F000BB694FF0010202FA03F27B681A61BB6920
:1008000003F10103BB61BB69072BBAD97B687A6925
:100810001A603B681B88FF2B53D97B685B687B6140
:100820004FF00003BB6146E0BB6903F108034FF0E2
:10083000010202FA03F3FB603B681B881A46FB685F
:1008400013403B613A69FB689A4230D1BB694FEA79
:100850008303FB60FB684FF00F0202FA03F3BB60F7
:10086000BB686FEA03037A6913407B61FB68FA692E
:1008700002FA03F37A6913437B613B68DB78282B28
:1008800008D1BB6903F108034FF0010202FA03F239
:100890007B685A613B68DB78482B08D1BB6903F160
:1008A00008034FF0010202FA03F27B681A61BB6988
:1008B00003F10103BB61BB69072BB5D97B687A697A
:1008C0005A6007F12407BD4680BC704780B483B0EE
:1008D00000AF78600B467B807A887B681A6107F1ED
:1008E0000C07BD4680BC704780B483B000AF786011
:1008F0000B467B807A887B685A6107F10C07BD46FE
:1009000080BC704780B58AB000AF786044F20500C3
:100910004FF0010100F010FD4FF40073BB844FF065
:10092000180387F827304FF0030387F8263007F1C4
:1009300024034FF40060C4F201001946FFF7EEFEF5
:100940004FF48063BB844FF0040387F8273007F12E
:1009500024034FF40060C4F201001946FFF7DEFEE5
:1009600007F10C03184600F041FE07F10C034FF4A9
:100970006050C4F20100194600F00CFE7B687B61F8
:100980004FF000033B834FF000037B834FF00003E5
:10099000BB834FF00C03FB834FF000033B8407F154
:1009A00014034FF46050C4F20100194600F01CFD1E
:1009B0004FF46050C4F201004FF0010100F030FE2E
:1009C00007F12807BD4680BD80B483B000AF7860D2
:1009D00000BF7B68002B0CBF00220122D2B203F1C2
:1009E000FF337B60002AF4D107F10C07BD4680BCC1
:1009F000704700BF80B584B000AF02460B46FA7165
:100A0000BB7141F6C003C0F600031B78FA79D31A14
:100A1000FB7341F6C103C0F600031B78BA79D31A01
:100A2000BB73FA7B40F23403C2F200039A5CF97B99
:100A300040F21803C2F200035B5C9A4215D3BA7B02
:100A400040F23C03C2F200034FF001019954BB791C
:100A50004FF0010202FA03F39BB24FF44060C4F27C
:100A600001001946FFF732FF1CE0FA7B40F2340325
:100A7000C2F200039B5C002B14D1BA7B40F23C0312
:100A8000C2F200034FF000019954BB794FF001020C
:100A900002FA03F39BB24FF44060C4F2010019461E
:100AA000FFF722FFBA7B40F23C03C2F200039B5CDB
:100AB000002B0ED1FA7B40F23403C2F200039B5CA0
:100AC00003F10103D9B240F23403C2F20003995496
:100AD0000DE0FA7B40F23403C2F200039B5C03F1A9
:100AE000FF33D9B240F23403C2F200039954FA7BC7
:100AF00040F24403C2F200039B5C002B0DD0FB7953
:100B00004FF0010202FA03F39BB24FF40060C4F20B
:100B100001001946FFF7DAFE0CE0FB794FF0010205
:100B200002FA03F39BB24FF40060C4F201001946CD
:100B3000FFF7DAFEFA7BF97B40F24403C2F20003CE
:100B40005B5C6FEA0303D9B240F24403C2F20003D4
:100B5000995407F11007BD4680BD00BF80B582B033
:100B600000AF7860396014E000BF7B681B889BB2DF
:100B700003F04003002BF8D03B681B78DBB27868A9
:100B8000194600F06DFD3B681B783B6803F10103DB
:100B90003B603B681B78DBB2002BE5D107F108070F
:100BA000BD4680BD80B582B000AF4FF080404FF0B1
:100BB0000101FFF789FB0346002B5BD04FF080401B
:100BC0004FF00101FFF7B0FB4FF00003FB7149E06C
:100BD000FA7940F24C03C2F2000333F81230002BD2
:100BE0003CD0FA7940F25C03C2F2000333F81230D1
:100BF00003F1010399B240F25C03C2F2000323F84F
:100C00001210FA7940F25C03C2F2000333F81220AA
:100C1000F97940F24C03C2F2000333F811309A42E2
:100C20001CD341F6C003C0F600031A78FB79D31831
:100C3000DAB241F6C103C0F600031978FB79CB188C
:100C4000DBB210461946FFF7D5FEFA7940F25C0395
:100C5000C2F200034FF0000123F81210FB7903F1F8
:100C60000103FB7141F6C203C0F600031B78FA7959
:100C70009A42ADD307F10807BD4680BD80B584B068
:100C800000AF4FF001004FF0010100F081FB4FF089
:100C900027033B814FF01703BB804FF000037B819C
:100CA0004FF00003FB8007F104034FF0804019462A
:100CB000FFF738FA4FF080404FF001014FF001028A
:100CC000FFF7DEFA4FF080404FF00101FFF7B8FA6E
:100CD0004FF01C033B704FF00103FB704FF000031B
:100CE0007B704FF00003BB704FF46050C4F2010002
:100CF00041F6C401C0F60001FFF730FF3B4618463D
:100D000000F06AFD4FF46050C4F2010041F6E401C6
:100D1000C0F60001FFF722FF07F11007BD4680BDB6
:100D200080B582B000AF4FF004004FF0010100F039
:100D300003FB4FF0FF03BB804FF01003FB714FF03C
:100D40000203BB7107F104034FF40060C4F2010019
:100D50001946FFF7E3FC4FF008004FF0010100F0E7
:100D6000EBFA4FF4FF53BB804FF01003FB714FF0D1
:100D70000203BB7107F104034FF44060C4F20100A9
:100D80001946FFF7CBFC4FF010004FF0010100F0C7
:100D9000D3FA4FF0FF03BB804FF01003FB714FF00D
:100DA0000203BB7107F104034FF48050C4F2010049
:100DB0001946FFF7B3FC07F10807BD4680BD00BF29
:100DC00080B582B000AF41F6C003C0F600031B78C7
:100DD000FB710CE0FA7940F24C03C2F200034FF0D1
:100DE000000123F81210FB7903F10103FB7141F6B6
:100DF000C203C0F600031B78FA799A42EAD34FF493
:100E00008050C4F201004FF0FF01FFF76DFD4FF07D
:100E10000003BB714BE041F6C003C0F600031B7832
:100E20007B7134E07A7941F6C103C0F600031B7888
:100E3000D3184FF0010202FA03F39BB24FF4406063
:100E4000C4F201001946FFF741FD7B794FF0010222
:100E500002FA03F39BB24FF40060C4F2010019469A
:100E6000FFF734FD4FF47A70FFF7AEFD7B794FF05A
:100E7000010202FA03F39BB24FF40060C4F20100D6
:100E80001946FFF731FD7B7903F101037B7141F6D0
:100E9000C203C0F600031B787A799A42C2D34FF49A
:100EA0007A70FFF791FDBB7903F10103BB71BB7948
:100EB0004F2BB0D94FF48050C4F201004FF0FF0126
:100EC000FFF704FD41F6C003C0F600031B783B7139
:100ED00024E03A7940F23403C2F200034FF00001FB
:100EE00099543B7903F101034FF0010202FA03F335
:100EF0009BB24FF44060C4F201001946FFF7F4FCC6
:100F00003B7903F1010240F23C03C2F200034FF0CF
:100F1000000199543B7903F102033B7141F6C2038E
:100F2000C0F600031B783A799A42D2D907F1080734
:100F3000BD4680BD80B582B000AFFFF79DFA4FF48B
:100F40001650FFF7DFFCFFF799FEFFF7E9FE4FF4BD
:100F50006050C4F2010041F6FC01C0F60001FFF749
:100F6000FDFD00E000BF40F21403C2F200031B7855
:100F7000002B0CD040F21403C2F200034FF0000229
:100F80001A70FFF71DFF42F21070FFF71DFD4FF4BE
:100F90006050C4F201004FF0200100F087FB0346CF
:100FA000002BDFD04FF46050C4F2010000F06CFB66
:100FB0000346FB80FB88762B26D14FF46050C4F2A9
:100FC000010041F61411C0F60001FFF7C7FD4FF410
:100FD0004060C4F201004FF00801FFF785FC4FF4B8
:100FE0004060C4F201004FF00401FFF76FFC4FF4C2
:100FF000FA70FFF7E9FC4FF44060C4F201004FF0D3
:101000000401FFF771FCADE7FB887A2B26D14FF482
:101010006050C4F2010041F62011C0F60001FFF754
:101020009DFD4FF44060C4F201004FF00801FFF74E
:101030004DFC4FF44060C4F201004FF00401FFF793
:1010400045FC4FF4FA70FFF7BFFC4FF44060C4F268
:1010500001004FF00401FFF747FC83E7FB88642B96
:101060001ED1FFF7ADFE4FF46050C4F2010041F60F
:101070003011C0F60001FFF771FD05E04FF460503C
:10108000C4F2010000F000FB4FF46050C4F2010014
:1010900040F2255100F02AFB0346002BEED064E01D
:1010A000FB884FEA53039BB2DBB203F1FF337B7142
:1010B00000BF4FF46050C4F201004FF0200100F077
:1010C000F5FA0346002BF4D04FF46050C4F201004F
:1010D00000F0DAFA03463B7100BF4FF46050C4F2EF
:1010E00001004FF0200100F0E1FA0346002BF4D09C
:1010F0004FF46050C4F2010000F0C6FA0346FB70E2
:101100007A793B794FEA032399B2FB789BB20B4380
:101110009BB299B240F24C03C2F2000323F81210C2
:101120007A7940F24C03C2F2000333F81230002BFC
:101130000DD07B794FF0010202FA03F39BB24FF41A
:101140008050C4F201001946FFF7CEFB0AE77B7915
:101150004FF0010202FA03F39BB24FF48050C4F245
:1011600001001946FFF7B2FBFCE6FBE680B489B04C
:1011700000AF78604FF00003FB614FF00003BB61EC
:101180004FF000037B614FF000033B614FF0000321
:10119000FB604FF48053C4F202035B6803F00C035E
:1011A000FB61FB69042B0AD0082B0FD0002B47D121
:1011B0007A684FF49053C0F27A03136047E07A687C
:1011C0004FF49053C0F27A03136040E04FF4805321
:1011D000C4F202035B6803F47013BB614FF48053E5
:1011E000C4F202035B6803F480337B61BB694FEA9E
:1011F000934303F10203BB617B69002B09D1BA69F8
:101200004FF41063C0F23D0303FB02F27B681A60E7
:101210001DE04FF48053C4F20203DB6A03F00F03B6
:1012200003F10103FB604FF49053C0F27A03FA68B4
:10123000B3FBF2F3BA6902FB03F27B681A6006E0C3
:101240007A684FF49053C0F27A03136000BF4FF4F2
:101250008053C4F202035B6803F0F003FB61FB6997
:101260004FEA1313FB6140F22003C2F20003FA6954
:101270009B181B78DBB23B617B681A683B6922FADA
:1012800003F27B685A604FF48053C4F202035B6838
:1012900003F4E063FB61FB694FEA1323FB6140F257
:1012A0002003C2F20003FA699B181B78DBB23B6192
:1012B0007B685A683B6922FA03F27B689A604FF4B4
:1012C0008053C4F202035B6803F46053FB61FB6963
:1012D0004FEAD323FB6140F22003C2F20003FA6914
:1012E0009B181B78DBB23B617B685A683B6922FA2A
:1012F00003F27B68DA604FF48053C4F202035B6848
:1013000003F44043FB61FB694FEA9333FB6140F216
:101310003003C2F20003FA699B181B78DBB23B6111
:101320007B68DA683B69B2FBF3F27B681A6107F10C
:101330002407BD4680BC704780B483B000AF78609E
:101340000B46FB70FB78002B0DD04FF48053C4F29A
:1013500002034FF48052C4F20202926911467A6885
:101360000A439A610EE04FF48053C4F202034FF433
:101370008052C4F20202926911467A686FEA020250
:101380000A409A6107F10C07BD4680BC704700BF58
:1013900080B483B000AF78600B46FB70FB78002B05
:1013A0000DD04FF48053C4F202034FF48052C4F2C4
:1013B0000202D26911467A680A43DA610EE04FF4FC
:1013C0008053C4F202034FF48052C4F20202D26985
:1013D00011467A686FEA02020A40DA6107F10C07E7
:1013E000BD4680BC704700BF80B58CB000AF786050
:1013F00039604FF00003FB624FF00003BB624FF017
:1014000000037B624FF000033B624FF00003FB617F
:101410007B68FB617B681B8A9BB2FB62FA6A4CF6B5
:10142000FF731340FB623B68DB88FA6A1343FB627D
:10143000FB6A9AB27B681A827B689B899BB2FB62CB
:10144000FA6A4EF6F3131340FB623B689A883B68D6
:101450001B8913439AB23B685B8913439BB2FA6AB8
:101460001343FB62FB6A9AB27B689A817B689B8A12
:101470009BB2FB62FA6A4FF6FF431340FB623B6884
:101480009B89FA6A1343FB62FB6A9AB27B689A8271
:1014900007F108031846FFF769FEFA694FF4605335
:1014A000C4F201039A4202D17B69BB6201E03B694D
:1014B000BB627B689B899BB29BB21BB2002B0FDA8D
:1014C000BA6A13464FEA83039B184FEA83029A18BD
:1014D0003B681B684FEA4303B2FBF3F37B620EE009
:1014E000BA6A13464FEA83039B184FEA83029A189D
:1014F0003B681B684FEA8303B2FBF3F37B627A6AB3
:1015000048F21F53C5F2EB13A3FB02134FEA531328
:101510004FEA0313FB62FB6A4FEA13134FF06402B6
:1015200002FB03F37A6AD31A3B627B689B899BB206
:101530009BB21BB2002B12DA3B6A4FEAC30303F1E2
:10154000320248F21F53C5F2EB13A3FB02134FEA1A
:10155000531303F00703FA6A1343FB6211E03B6A7B
:101560004FEA031303F1320248F21F53C5F2EB13A3
:10157000A3FB02134FEA531303F00F03FA6A13435A
:10158000FB62FB6A9AB27B681A8107F13007BD469D
:1015900080BD00BF80B485B000AF786039604FF087
:1015A0000003FB607B681B8A9BB2FB60FA684FF20A
:1015B000FF031340FB603B681A883B685B8813435A
:1015C0009AB23B689B8813439AB23B68DB8813430B
:1015D0009BB2FA681343FB60FB689AB27B681A827D
:1015E00007F11407BD4680BC704700BF80B483B0CC
:1015F00000AF78607B684FF000021A807B684FF084
:1016000000025A807B684FF000029A807B684FF09E
:101610000002DA8007F10C07BD4680BC704700BFAE
:1016200080B483B000AF78600B46FB70FB78002B72
:1016300008D07B689B899BB243F400539AB27B68C5
:101640009A8107E07B689B899BB223F400539AB28E
:101650007B689A8107F10C07BD4680BC704700BFCC
:1016600080B483B000AF78600B467B807B884FEA04
:10167000C3534FEAD3539AB27B689A8007F10C07A1
:10168000BD4680BC704700BF80B483B000AF7860B7
:101690007B689B889BB24FEAC3534FEAD3539BB2FC
:1016A000184607F10C07BD4680BC704780B485B072
:1016B00000AF78600B467B804FF00003FB737B68C4
:1016C0001B889AB27B8813409BB2002B03D04FF04B
:1016D0000103FB7302E04FF00003FB73FB7B184632
:1016E00007F11407BD4680BC704700BF80B487B0C7
:1016F00000AF78600B467B804FF00003FB604FF03B
:1017000000037B614FF00003BB604FF00003FB74EC
:101710007B88DBB24FEA5313DBB2BB607B8803F0FC
:101720001F037B617B694FF0010202FA03F37B61C7
:10173000BB68012B06D17B689B899BB27A691340F9
:101740007B610FE0BB68022B06D17B681B8A9BB2D2
:101750007A6913407B6105E07B689B8A9BB27A695A
:1017600013407B617B884FEA13239BB2FB60FB68CD
:101770004FF0010202FA03F3FB607B681B889BB207
:10178000FA681340FB607B69002B06D0FB68002BD6
:1017900003D04FF00103FB7402E04FF00003FB7431
:1017A000FB7C184607F11C07BD4680BC704700BF94
:1017B000ABBE01E000207047002A00D0106001207D
:1017C000704706980188034A914202D1043006907E
:1017D0007047FEE7ABBE000080B487B000AF786012
:1017E0004FF000037B614FF000033B614FF00F03AC
:1017F000FB607B68DB78002B47D04FF46D43CEF263
:101800000003DB686FEA030303F4E0634FEA13238A
:101810007B617B69C3F104033B617B69FA6822FA4F
:1018200003F3FB607B685B781A463B6902FA03F3BB
:101830007B617B689B781A46FB6813407A69134387
:101840007B617B694FEA03137B614FF46143CEF206
:1018500000037A68127811467A69D2B25B1883F86D
:1018600000234FF46143CEF200037A6812784FEA06
:101870005212D2B27968097801F01F014FF00100CD
:1018800000FA01F143F8221014E04FF46143CEF264
:1018900000037A6812784FEA5212D2B27968097856
:1018A00001F01F014FF0010000FA01F102F12002E6
:1018B00043F8221007F11C07BD4680BC704700BFEB
:1018C00000050800696E697469616C697369657205
:1018D00065204E5649432066FC722054696D65723E
:1018E000320A000054696D65723220696E6974694C
:1018F000616C6973696572740A0000004F726765F4
:101900006C20696E697469616C6973696572742EA3
:101910000A000000466C6F70707920766F720A00C2
:10192000466C6F70707920727565636B0A000000F9
:10193000466C6F7070792052657365740A00000000
:1019400000366E01000000000000000001020304E8
:1019500006070809010000007878787878787878A8
:101960000000000001020304010203040607080945
:04197000020406085F
:0400000508000000EF
:00000001FF
